{
  "contractName": "MyContract",
  "abi": [
    {
      "constant": true,
      "inputs": [],
      "name": "value",
      "outputs": [
        {
          "name": "",
          "type": "uint256"
        }
      ],
      "payable": false,
      "stateMutability": "view",
      "type": "function"
    },
    {
      "anonymous": false,
      "inputs": [
        {
          "indexed": false,
          "name": "val",
          "type": "uint256"
        }
      ],
      "name": "ValueSet",
      "type": "event"
    },
    {
      "constant": false,
      "inputs": [
        {
          "name": "val",
          "type": "uint256"
        }
      ],
      "name": "setValue",
      "outputs": [],
      "payable": false,
      "stateMutability": "nonpayable",
      "type": "function"
    },
    {
      "constant": true,
      "inputs": [],
      "name": "getValue",
      "outputs": [
        {
          "name": "",
          "type": "uint256"
        }
      ],
      "payable": false,
      "stateMutability": "view",
      "type": "function"
    }
  ],
  "bytecode": "0x6060604052341561000f57600080fd5b61014f8061001e6000396000f300606060405260043610610057576000357c0100000000000000000000000000000000000000000000000000000000900463ffffffff168063209652551461005c5780633fa4f2451461008557806355241077146100ae575b600080fd5b341561006757600080fd5b61006f6100d1565b6040518082815260200191505060405180910390f35b341561009057600080fd5b6100986100da565b6040518082815260200191505060405180910390f35b34156100b957600080fd5b6100cf60048080359060200190919050506100e0565b005b60008054905090565b60005481565b806000819055507f012c78e2b84325878b1bd9d250d772cfe5bda7722d795f45036fa5e1e6e303fc6000546040518082815260200191505060405180910390a1505600a165627a7a723058202945ce17571414a2ca8b6cfc356cc225a7c2640586ab086b8f43a37e072a05ba0029",
  "source": "contract MyContract {\n  uint public value;\n  event ValueSet(uint val);\n  function setValue(uint val) {\n    value = val;\n    ValueSet(value);\n  }\n  function getValue() constant returns (uint) {\n    return value;\n  }\n}\n",
  "sourcePath": "/Users/yuzhao/gits/eth-tweet-shadow/truffle-project/contracts/MyContract.sol",
  "compiler": {
    "name": "solc",
    "version": "0.4.19+commit.c4cbbb05.Emscripten.clang"
  },
  "schemaVersion": "2.0.0",
  "updatedAt": "2018-03-21T03:29:34.292Z"
}