{
  "contractName": "SimpleTwitter",
  "abi": [
    {
      "constant": true,
      "inputs": [],
      "name": "maxTweetLength",
      "outputs": [
        {
          "name": "",
          "type": "uint16"
        }
      ],
      "payable": false,
      "stateMutability": "view",
      "type": "function"
    },
    {
      "constant": true,
      "inputs": [],
      "name": "maxNameLength",
      "outputs": [
        {
          "name": "",
          "type": "uint16"
        }
      ],
      "payable": false,
      "stateMutability": "view",
      "type": "function"
    },
    {
      "constant": true,
      "inputs": [],
      "name": "developer",
      "outputs": [
        {
          "name": "",
          "type": "address"
        }
      ],
      "payable": false,
      "stateMutability": "view",
      "type": "function"
    },
    {
      "constant": true,
      "inputs": [
        {
          "name": "",
          "type": "uint256"
        }
      ],
      "name": "tweets",
      "outputs": [
        {
          "name": "authorAddress",
          "type": "address"
        },
        {
          "name": "name",
          "type": "string"
        },
        {
          "name": "text",
          "type": "string"
        },
        {
          "name": "date",
          "type": "uint256"
        }
      ],
      "payable": false,
      "stateMutability": "view",
      "type": "function"
    },
    {
      "inputs": [],
      "payable": false,
      "stateMutability": "nonpayable",
      "type": "constructor"
    },
    {
      "anonymous": false,
      "inputs": [
        {
          "indexed": false,
          "name": "authorAddress",
          "type": "address"
        },
        {
          "indexed": false,
          "name": "name",
          "type": "string"
        },
        {
          "indexed": false,
          "name": "text",
          "type": "string"
        },
        {
          "indexed": false,
          "name": "date",
          "type": "uint256"
        },
        {
          "indexed": false,
          "name": "tweetKey",
          "type": "uint256"
        }
      ],
      "name": "onTweetAdded",
      "type": "event"
    },
    {
      "constant": false,
      "inputs": [
        {
          "name": "name",
          "type": "string"
        },
        {
          "name": "text",
          "type": "string"
        }
      ],
      "name": "addTweet",
      "outputs": [],
      "payable": false,
      "stateMutability": "nonpayable",
      "type": "function"
    },
    {
      "constant": true,
      "inputs": [],
      "name": "getSettings",
      "outputs": [
        {
          "name": "",
          "type": "uint16"
        },
        {
          "name": "",
          "type": "uint16"
        }
      ],
      "payable": false,
      "stateMutability": "view",
      "type": "function"
    },
    {
      "constant": false,
      "inputs": [
        {
          "name": "_maxNameLength",
          "type": "uint16"
        },
        {
          "name": "_maxTweetLength",
          "type": "uint16"
        }
      ],
      "name": "setSettings",
      "outputs": [],
      "payable": false,
      "stateMutability": "nonpayable",
      "type": "function"
    }
  ],
  "bytecode": "0x6060604052341561000f57600080fd5b608c600060146101000a81548161ffff021916908361ffff1602179055506014600060166101000a81548161ffff021916908361ffff160217905550336000806101000a81548173ffffffffffffffffffffffffffffffffffffffff021916908373ffffffffffffffffffffffffffffffffffffffff160217905550610aaf8061009a6000396000f300606060405260043610610083576000357c0100000000000000000000000000000000000000000000000000000000900463ffffffff16806313ce935814610088578063398b91af146100b95780633b992f2b146100ed5780637e75b4081461011e57806385b4bb53146101be578063ca4b208b146101fe578063e8d857b014610253575b600080fd5b341561009357600080fd5b61009b6103cf565b604051808261ffff1661ffff16815260200191505060405180910390f35b34156100c457600080fd5b6100eb600480803561ffff1690602001909190803561ffff169060200190919050506103e3565b005b34156100f857600080fd5b61010061047c565b604051808261ffff1661ffff16815260200191505060405180910390f35b341561012957600080fd5b6101bc600480803590602001908201803590602001908080601f0160208091040260200160405190810160405280939291908181526020018383808284378201915050505050509190803590602001908201803590602001908080601f01602080910402602001604051908101604052809392919081815260200183838082843782019150505050505091905050610490565b005b34156101c957600080fd5b6101d1610739565b604051808361ffff1661ffff1681526020018261ffff1661ffff1681526020019250505060405180910390f35b341561020957600080fd5b610211610766565b604051808273ffffffffffffffffffffffffffffffffffffffff1673ffffffffffffffffffffffffffffffffffffffff16815260200191505060405180910390f35b341561025e57600080fd5b610274600480803590602001909190505061078b565b604051808573ffffffffffffffffffffffffffffffffffffffff1673ffffffffffffffffffffffffffffffffffffffff16815260200180602001806020018481526020018381038352868181546001816001161561010002031660029004815260200191508054600181600116156101000203166002900480156103395780601f1061030e57610100808354040283529160200191610339565b820191906000526020600020905b81548152906001019060200180831161031c57829003601f168201915b50508381038252858181546001816001161561010002031660029004815260200191508054600181600116156101000203166002900480156103bc5780601f10610391576101008083540402835291602001916103bc565b820191906000526020600020905b81548152906001019060200180831161039f57829003601f168201915b5050965050505050505060405180910390f35b600060149054906101000a900461ffff1681565b6000809054906101000a900473ffffffffffffffffffffffffffffffffffffffff1673ffffffffffffffffffffffffffffffffffffffff163373ffffffffffffffffffffffffffffffffffffffff1614151561043e57600080fd5b81600060166101000a81548161ffff021916908361ffff16021790555080600060146101000a81548161ffff021916908361ffff1602179055505050565b600060169054906101000a900461ffff1681565b600060169054906101000a900461ffff1661ffff166104b66104b1846107e8565b610816565b11156104c157600080fd5b600060149054906101000a900461ffff1661ffff166104e76104e2836107e8565b610816565b11156104f257600080fd5b6001805480600101828161050691906108dc565b916000526020600020906004020160006080604051908101604052803373ffffffffffffffffffffffffffffffffffffffff16815260200186815260200185815260200142815250909190915060008201518160000160006101000a81548173ffffffffffffffffffffffffffffffffffffffff021916908373ffffffffffffffffffffffffffffffffffffffff16021790555060208201518160010190805190602001906105b692919061090e565b5060408201518160020190805190602001906105d392919061090e565b50606082015181600301555050507f9a09b2b614ff0b166c21753b02abd530af36fc391ffaa6c43f7f7a3884f7b147338383426001808054905003604051808673ffffffffffffffffffffffffffffffffffffffff1673ffffffffffffffffffffffffffffffffffffffff1681526020018060200180602001858152602001848152602001838103835287818151815260200191508051906020019080838360005b83811015610690578082015181840152602081019050610675565b50505050905090810190601f1680156106bd5780820380516001836020036101000a031916815260200191505b50838103825286818151815260200191508051906020019080838360005b838110156106f65780820151818401526020810190506106db565b50505050905090810190601f1680156107235780820380516001836020036101000a031916815260200191505b5097505050505050505060405180910390a15050565b600080600060169054906101000a900461ffff16600060149054906101000a900461ffff16915091509091565b6000809054906101000a900473ffffffffffffffffffffffffffffffffffffffff1681565b60018181548110151561079a57fe5b90600052602060002090600402016000915090508060000160009054906101000a900473ffffffffffffffffffffffffffffffffffffffff1690806001019080600201908060030154905084565b6107f061098e565b600060208301905060408051908101604052808451815260200182815250915050919050565b6000806000806000601f8660200151039350856000015184019250600091505b828410156108d05760ff845116905060808160ff16101561085c576001840193506108c3565b60e08160ff161015610873576002840193506108c2565b60f08160ff16101561088a576003840193506108c1565b60f88160ff1610156108a1576004840193506108c0565b60fc8160ff1610156108b8576005840193506108bf565b6006840193505b5b5b5b5b8180600101925050610836565b81945050505050919050565b8154818355818115116109095760040281600402836000526020600020918201910161090891906109a8565b5b505050565b828054600181600116156101000203166002900490600052602060002090601f016020900481019282601f1061094f57805160ff191683800117855561097d565b8280016001018555821561097d579182015b8281111561097c578251825591602001919060010190610961565b5b50905061098a9190610a16565b5090565b604080519081016040528060008152602001600081525090565b610a1391905b80821115610a0f57600080820160006101000a81549073ffffffffffffffffffffffffffffffffffffffff02191690556001820160006109ee9190610a3b565b6002820160006109fe9190610a3b565b6003820160009055506004016109ae565b5090565b90565b610a3891905b80821115610a34576000816000905550600101610a1c565b5090565b90565b50805460018160011615610100020316600290046000825580601f10610a615750610a80565b601f016020900490600052602060002090810190610a7f9190610a16565b5b505600a165627a7a723058206916711a64af10bb6b9a66f8256e1f7b0a5ce2c563835b3bc6236527e3ceb0250029",
  "source": "pragma solidity ^0.4.1;\n\nimport \"./strings.sol\";\n\ncontract SimpleTwitter {\n    using strings for *;\n\n    address public developer;\n    uint16 public maxTweetLength;\n    uint16 public maxNameLength;\n\n    struct Tweet {\n        address authorAddress;\n        string name;\n        string text;\n        uint date;\n    }\n\n    Tweet[] public tweets;\n\n    event onTweetAdded(address authorAddress, string name, string text, uint date, uint tweetKey);\n\n    modifier onlyDeveloper() {\n        if (msg.sender != developer) throw;\n        _;\n    }\n\n    function SimpleTwitter() {\n        maxTweetLength = 140;\n        maxNameLength = 20;\n        developer = msg.sender;\n    }\n\n    function addTweet(string name, string text) {\n        if (name.toSlice().len() > maxNameLength) throw;\n        if (text.toSlice().len() > maxTweetLength) throw;\n\n        tweets.push(Tweet(msg.sender, name, text, now));\n        onTweetAdded(msg.sender, name, text, now, tweets.length - 1);\n    }\n\n    function getSettings() constant returns(uint16, uint16) {\n        return (maxNameLength, maxTweetLength);\n    }\n\n    function setSettings(uint16 _maxNameLength, uint16 _maxTweetLength) onlyDeveloper {\n        maxNameLength = _maxNameLength;\n        maxTweetLength = _maxTweetLength;\n    }\n}\n",
  "sourcePath": "/Users/yuzhao/gits/eth-tweet-shadow/truffle-project/contracts/SimpleTwitter.sol",
  "compiler": {
    "name": "solc",
    "version": "0.4.19+commit.c4cbbb05.Emscripten.clang"
  },
  "schemaVersion": "2.0.0",
  "updatedAt": "2018-03-21T03:29:34.509Z"
}